{
	"test.sol": {
		"FunctionTypes": {
			"abi": [
				{
					"anonymous": false,
					"inputs": [
						{
							"indexed": false,
							"internalType": "string",
							"name": "message",
							"type": "string"
						},
						{
							"indexed": false,
							"internalType": "uint256",
							"name": "value",
							"type": "uint256"
						}
					],
					"name": "LogMessage",
					"type": "event"
				},
				{
					"inputs": [],
					"name": "abc",
					"outputs": [],
					"stateMutability": "nonpayable",
					"type": "function"
				}
			],
			"devdoc": {
				"kind": "dev",
				"methods": {},
				"version": 1
			},
			"evm": {
				"assembly": "    /* \"test.sol\":67:256  contract FunctionTypes{... */\n  mstore(0x40, 0x80)\n  callvalue\n  dup1\n  iszero\n  tag_1\n  jumpi\n  revert(0x00, 0x00)\ntag_1:\n  pop\n  dataSize(sub_0)\n  dup1\n  dataOffset(sub_0)\n  0x00\n  codecopy\n  0x00\n  return\nstop\n\nsub_0: assembly {\n        /* \"test.sol\":67:256  contract FunctionTypes{... */\n      mstore(0x40, 0x80)\n      callvalue\n      dup1\n      iszero\n      tag_1\n      jumpi\n      revert(0x00, 0x00)\n    tag_1:\n      pop\n      jumpi(tag_2, lt(calldatasize, 0x04))\n      shr(0xe0, calldataload(0x00))\n      dup1\n      0x92277933\n      eq\n      tag_3\n      jumpi\n    tag_2:\n      revert(0x00, 0x00)\n        /* \"test.sol\":149:253  function abc() public {... */\n    tag_3:\n      tag_4\n      tag_5\n      jump\t// in\n    tag_4:\n      stop\n    tag_5:\n        /* \"test.sol\":187:208  LogMessage(\"a\", 1234) */\n      0x69a6cf7852823a03f1e0278fa944045502fae9fb546695dbf1f50521651a8b73\n        /* \"test.sol\":203:207  1234 */\n      0x04d2\n        /* \"test.sol\":187:208  LogMessage(\"a\", 1234) */\n      mload(0x40)\n      tag_7\n      swap2\n      swap1\n      tag_8\n      jump\t// in\n    tag_7:\n      mload(0x40)\n      dup1\n      swap2\n      sub\n      swap1\n      log1\n        /* \"test.sol\":224:245  LogMessage(\"b\", 1234) */\n      0x69a6cf7852823a03f1e0278fa944045502fae9fb546695dbf1f50521651a8b73\n        /* \"test.sol\":240:244  1234 */\n      0x04d2\n        /* \"test.sol\":224:245  LogMessage(\"b\", 1234) */\n      mload(0x40)\n      tag_9\n      swap2\n      swap1\n      tag_10\n      jump\t// in\n    tag_9:\n      mload(0x40)\n      dup1\n      swap2\n      sub\n      swap1\n      log1\n        /* \"test.sol\":149:253  function abc() public {... */\n      jump\t// out\n        /* \"#utility.yul\":7:176   */\n    tag_11:\n        /* \"#utility.yul\":91:102   */\n      0x00\n        /* \"#utility.yul\":125:131   */\n      dup3\n        /* \"#utility.yul\":120:123   */\n      dup3\n        /* \"#utility.yul\":113:132   */\n      mstore\n        /* \"#utility.yul\":165:169   */\n      0x20\n        /* \"#utility.yul\":160:163   */\n      dup3\n        /* \"#utility.yul\":156:170   */\n      add\n        /* \"#utility.yul\":141:170   */\n      swap1\n      pop\n        /* \"#utility.yul\":7:176   */\n      swap3\n      swap2\n      pop\n      pop\n      jump\t// out\n        /* \"#utility.yul\":182:333   */\n    tag_12:\n        /* \"#utility.yul\":322:325   */\n      0x6100000000000000000000000000000000000000000000000000000000000000\n        /* \"#utility.yul\":318:319   */\n      0x00\n        /* \"#utility.yul\":310:316   */\n      dup3\n        /* \"#utility.yul\":306:320   */\n      add\n        /* \"#utility.yul\":299:326   */\n      mstore\n        /* \"#utility.yul\":182:333   */\n      pop\n      jump\t// out\n        /* \"#utility.yul\":339:704   */\n    tag_13:\n        /* \"#utility.yul\":481:484   */\n      0x00\n        /* \"#utility.yul\":502:568   */\n      tag_25\n        /* \"#utility.yul\":566:567   */\n      0x01\n        /* \"#utility.yul\":561:564   */\n      dup4\n        /* \"#utility.yul\":502:568   */\n      tag_11\n      jump\t// in\n    tag_25:\n        /* \"#utility.yul\":495:568   */\n      swap2\n      pop\n        /* \"#utility.yul\":577:670   */\n      tag_26\n        /* \"#utility.yul\":666:669   */\n      dup3\n        /* \"#utility.yul\":577:670   */\n      tag_12\n      jump\t// in\n    tag_26:\n        /* \"#utility.yul\":695:697   */\n      0x20\n        /* \"#utility.yul\":690:693   */\n      dup3\n        /* \"#utility.yul\":686:698   */\n      add\n        /* \"#utility.yul\":679:698   */\n      swap1\n      pop\n        /* \"#utility.yul\":339:704   */\n      swap2\n      swap1\n      pop\n      jump\t// out\n        /* \"#utility.yul\":710:798   */\n    tag_14:\n        /* \"#utility.yul\":758:765   */\n      0x00\n        /* \"#utility.yul\":787:792   */\n      dup2\n        /* \"#utility.yul\":776:792   */\n      swap1\n      pop\n        /* \"#utility.yul\":710:798   */\n      swap2\n      swap1\n      pop\n      jump\t// out\n        /* \"#utility.yul\":804:881   */\n    tag_15:\n        /* \"#utility.yul\":841:848   */\n      0x00\n        /* \"#utility.yul\":870:875   */\n      dup2\n        /* \"#utility.yul\":859:875   */\n      swap1\n      pop\n        /* \"#utility.yul\":804:881   */\n      swap2\n      swap1\n      pop\n      jump\t// out\n        /* \"#utility.yul\":887:947   */\n    tag_16:\n        /* \"#utility.yul\":915:918   */\n      0x00\n        /* \"#utility.yul\":936:941   */\n      dup2\n        /* \"#utility.yul\":929:941   */\n      swap1\n      pop\n        /* \"#utility.yul\":887:947   */\n      swap2\n      swap1\n      pop\n      jump\t// out\n        /* \"#utility.yul\":953:1117   */\n    tag_17:\n        /* \"#utility.yul\":1014:1023   */\n      0x00\n        /* \"#utility.yul\":1047:1111   */\n      tag_31\n        /* \"#utility.yul\":1065:1110   */\n      tag_32\n        /* \"#utility.yul\":1074:1109   */\n      tag_33\n        /* \"#utility.yul\":1103:1108   */\n      dup5\n        /* \"#utility.yul\":1074:1109   */\n      tag_14\n      jump\t// in\n    tag_33:\n        /* \"#utility.yul\":1065:1110   */\n      tag_16\n      jump\t// in\n    tag_32:\n        /* \"#utility.yul\":1047:1111   */\n      tag_15\n      jump\t// in\n    tag_31:\n        /* \"#utility.yul\":1034:1111   */\n      swap1\n      pop\n        /* \"#utility.yul\":953:1117   */\n      swap2\n      swap1\n      pop\n      jump\t// out\n        /* \"#utility.yul\":1123:1276   */\n    tag_18:\n        /* \"#utility.yul\":1221:1269   */\n      tag_35\n        /* \"#utility.yul\":1263:1268   */\n      dup2\n        /* \"#utility.yul\":1221:1269   */\n      tag_17\n      jump\t// in\n    tag_35:\n        /* \"#utility.yul\":1216:1219   */\n      dup3\n        /* \"#utility.yul\":1209:1270   */\n      mstore\n        /* \"#utility.yul\":1123:1276   */\n      pop\n      pop\n      jump\t// out\n        /* \"#utility.yul\":1282:1833   */\n    tag_8:\n        /* \"#utility.yul\":1487:1491   */\n      0x00\n        /* \"#utility.yul\":1525:1527   */\n      0x40\n        /* \"#utility.yul\":1514:1523   */\n      dup3\n        /* \"#utility.yul\":1510:1528   */\n      add\n        /* \"#utility.yul\":1502:1528   */\n      swap1\n      pop\n        /* \"#utility.yul\":1574:1583   */\n      dup2\n        /* \"#utility.yul\":1568:1572   */\n      dup2\n        /* \"#utility.yul\":1564:1584   */\n      sub\n        /* \"#utility.yul\":1560:1561   */\n      0x00\n        /* \"#utility.yul\":1549:1558   */\n      dup4\n        /* \"#utility.yul\":1545:1562   */\n      add\n        /* \"#utility.yul\":1538:1585   */\n      mstore\n        /* \"#utility.yul\":1602:1733   */\n      tag_37\n        /* \"#utility.yul\":1728:1732   */\n      dup2\n        /* \"#utility.yul\":1602:1733   */\n      tag_13\n      jump\t// in\n    tag_37:\n        /* \"#utility.yul\":1594:1733   */\n      swap1\n      pop\n        /* \"#utility.yul\":1743:1826   */\n      tag_38\n        /* \"#utility.yul\":1822:1824   */\n      0x20\n        /* \"#utility.yul\":1811:1820   */\n      dup4\n        /* \"#utility.yul\":1807:1825   */\n      add\n        /* \"#utility.yul\":1798:1804   */\n      dup5\n        /* \"#utility.yul\":1743:1826   */\n      tag_18\n      jump\t// in\n    tag_38:\n        /* \"#utility.yul\":1282:1833   */\n      swap3\n      swap2\n      pop\n      pop\n      jump\t// out\n        /* \"#utility.yul\":1839:1990   */\n    tag_19:\n        /* \"#utility.yul\":1979:1982   */\n      0x6200000000000000000000000000000000000000000000000000000000000000\n        /* \"#utility.yul\":1975:1976   */\n      0x00\n        /* \"#utility.yul\":1967:1973   */\n      dup3\n        /* \"#utility.yul\":1963:1977   */\n      add\n        /* \"#utility.yul\":1956:1983   */\n      mstore\n        /* \"#utility.yul\":1839:1990   */\n      pop\n      jump\t// out\n        /* \"#utility.yul\":1996:2361   */\n    tag_20:\n        /* \"#utility.yul\":2138:2141   */\n      0x00\n        /* \"#utility.yul\":2159:2225   */\n      tag_41\n        /* \"#utility.yul\":2223:2224   */\n      0x01\n        /* \"#utility.yul\":2218:2221   */\n      dup4\n        /* \"#utility.yul\":2159:2225   */\n      tag_11\n      jump\t// in\n    tag_41:\n        /* \"#utility.yul\":2152:2225   */\n      swap2\n      pop\n        /* \"#utility.yul\":2234:2327   */\n      tag_42\n        /* \"#utility.yul\":2323:2326   */\n      dup3\n        /* \"#utility.yul\":2234:2327   */\n      tag_19\n      jump\t// in\n    tag_42:\n        /* \"#utility.yul\":2352:2354   */\n      0x20\n        /* \"#utility.yul\":2347:2350   */\n      dup3\n        /* \"#utility.yul\":2343:2355   */\n      add\n        /* \"#utility.yul\":2336:2355   */\n      swap1\n      pop\n        /* \"#utility.yul\":1996:2361   */\n      swap2\n      swap1\n      pop\n      jump\t// out\n        /* \"#utility.yul\":2367:2918   */\n    tag_10:\n        /* \"#utility.yul\":2572:2576   */\n      0x00\n        /* \"#utility.yul\":2610:2612   */\n      0x40\n        /* \"#utility.yul\":2599:2608   */\n      dup3\n        /* \"#utility.yul\":2595:2613   */\n      add\n        /* \"#utility.yul\":2587:2613   */\n      swap1\n      pop\n        /* \"#utility.yul\":2659:2668   */\n      dup2\n        /* \"#utility.yul\":2653:2657   */\n      dup2\n        /* \"#utility.yul\":2649:2669   */\n      sub\n        /* \"#utility.yul\":2645:2646   */\n      0x00\n        /* \"#utility.yul\":2634:2643   */\n      dup4\n        /* \"#utility.yul\":2630:2647   */\n      add\n        /* \"#utility.yul\":2623:2670   */\n      mstore\n        /* \"#utility.yul\":2687:2818   */\n      tag_44\n        /* \"#utility.yul\":2813:2817   */\n      dup2\n        /* \"#utility.yul\":2687:2818   */\n      tag_20\n      jump\t// in\n    tag_44:\n        /* \"#utility.yul\":2679:2818   */\n      swap1\n      pop\n        /* \"#utility.yul\":2828:2911   */\n      tag_45\n        /* \"#utility.yul\":2907:2909   */\n      0x20\n        /* \"#utility.yul\":2896:2905   */\n      dup4\n        /* \"#utility.yul\":2892:2910   */\n      add\n        /* \"#utility.yul\":2883:2889   */\n      dup5\n        /* \"#utility.yul\":2828:2911   */\n      tag_18\n      jump\t// in\n    tag_45:\n        /* \"#utility.yul\":2367:2918   */\n      swap3\n      swap2\n      pop\n      pop\n      jump\t// out\n\n    auxdata: 0xa26469706673582212208b3ebf5477de99bf8e11e0471ec9d8b04440602f994448bb9db1d75b85720b3864736f6c634300081e0033\n}\n",
				"bytecode": {
					"linkReferences": {},
					"object": "6080604052348015600e575f5ffd5b506102288061001c5f395ff3fe608060405234801561000f575f5ffd5b5060043610610029575f3560e01c8063922779331461002d575b5f5ffd5b610035610037565b005b7f69a6cf7852823a03f1e0278fa944045502fae9fb546695dbf1f50521651a8b736104d26040516100689190610150565b60405180910390a17f69a6cf7852823a03f1e0278fa944045502fae9fb546695dbf1f50521651a8b736104d26040516100a191906101c6565b60405180910390a1565b5f82825260208201905092915050565b7f61000000000000000000000000000000000000000000000000000000000000005f82015250565b5f6100ef6001836100ab565b91506100fa826100bb565b602082019050919050565b5f819050919050565b5f819050919050565b5f819050919050565b5f61013a61013561013084610105565b610117565b61010e565b9050919050565b61014a81610120565b82525050565b5f6040820190508181035f830152610167816100e3565b90506101766020830184610141565b92915050565b7f62000000000000000000000000000000000000000000000000000000000000005f82015250565b5f6101b06001836100ab565b91506101bb8261017c565b602082019050919050565b5f6040820190508181035f8301526101dd816101a4565b90506101ec6020830184610141565b9291505056fea26469706673582212208b3ebf5477de99bf8e11e0471ec9d8b04440602f994448bb9db1d75b85720b3864736f6c634300081e0033",
					"opcodes": "PUSH1 0x80 PUSH1 0x40 MSTORE CALLVALUE DUP1 ISZERO PUSH1 0xE JUMPI PUSH0 PUSH0 REVERT JUMPDEST POP PUSH2 0x228 DUP1 PUSH2 0x1C PUSH0 CODECOPY PUSH0 RETURN INVALID PUSH1 0x80 PUSH1 0x40 MSTORE CALLVALUE DUP1 ISZERO PUSH2 0xF JUMPI PUSH0 PUSH0 REVERT JUMPDEST POP PUSH1 0x4 CALLDATASIZE LT PUSH2 0x29 JUMPI PUSH0 CALLDATALOAD PUSH1 0xE0 SHR DUP1 PUSH4 0x92277933 EQ PUSH2 0x2D JUMPI JUMPDEST PUSH0 PUSH0 REVERT JUMPDEST PUSH2 0x35 PUSH2 0x37 JUMP JUMPDEST STOP JUMPDEST PUSH32 0x69A6CF7852823A03F1E0278FA944045502FAE9FB546695DBF1F50521651A8B73 PUSH2 0x4D2 PUSH1 0x40 MLOAD PUSH2 0x68 SWAP2 SWAP1 PUSH2 0x150 JUMP JUMPDEST PUSH1 0x40 MLOAD DUP1 SWAP2 SUB SWAP1 LOG1 PUSH32 0x69A6CF7852823A03F1E0278FA944045502FAE9FB546695DBF1F50521651A8B73 PUSH2 0x4D2 PUSH1 0x40 MLOAD PUSH2 0xA1 SWAP2 SWAP1 PUSH2 0x1C6 JUMP JUMPDEST PUSH1 0x40 MLOAD DUP1 SWAP2 SUB SWAP1 LOG1 JUMP JUMPDEST PUSH0 DUP3 DUP3 MSTORE PUSH1 0x20 DUP3 ADD SWAP1 POP SWAP3 SWAP2 POP POP JUMP JUMPDEST PUSH32 0x6100000000000000000000000000000000000000000000000000000000000000 PUSH0 DUP3 ADD MSTORE POP JUMP JUMPDEST PUSH0 PUSH2 0xEF PUSH1 0x1 DUP4 PUSH2 0xAB JUMP JUMPDEST SWAP2 POP PUSH2 0xFA DUP3 PUSH2 0xBB JUMP JUMPDEST PUSH1 0x20 DUP3 ADD SWAP1 POP SWAP2 SWAP1 POP JUMP JUMPDEST PUSH0 DUP2 SWAP1 POP SWAP2 SWAP1 POP JUMP JUMPDEST PUSH0 DUP2 SWAP1 POP SWAP2 SWAP1 POP JUMP JUMPDEST PUSH0 DUP2 SWAP1 POP SWAP2 SWAP1 POP JUMP JUMPDEST PUSH0 PUSH2 0x13A PUSH2 0x135 PUSH2 0x130 DUP5 PUSH2 0x105 JUMP JUMPDEST PUSH2 0x117 JUMP JUMPDEST PUSH2 0x10E JUMP JUMPDEST SWAP1 POP SWAP2 SWAP1 POP JUMP JUMPDEST PUSH2 0x14A DUP2 PUSH2 0x120 JUMP JUMPDEST DUP3 MSTORE POP POP JUMP JUMPDEST PUSH0 PUSH1 0x40 DUP3 ADD SWAP1 POP DUP2 DUP2 SUB PUSH0 DUP4 ADD MSTORE PUSH2 0x167 DUP2 PUSH2 0xE3 JUMP JUMPDEST SWAP1 POP PUSH2 0x176 PUSH1 0x20 DUP4 ADD DUP5 PUSH2 0x141 JUMP JUMPDEST SWAP3 SWAP2 POP POP JUMP JUMPDEST PUSH32 0x6200000000000000000000000000000000000000000000000000000000000000 PUSH0 DUP3 ADD MSTORE POP JUMP JUMPDEST PUSH0 PUSH2 0x1B0 PUSH1 0x1 DUP4 PUSH2 0xAB JUMP JUMPDEST SWAP2 POP PUSH2 0x1BB DUP3 PUSH2 0x17C JUMP JUMPDEST PUSH1 0x20 DUP3 ADD SWAP1 POP SWAP2 SWAP1 POP JUMP JUMPDEST PUSH0 PUSH1 0x40 DUP3 ADD SWAP1 POP DUP2 DUP2 SUB PUSH0 DUP4 ADD MSTORE PUSH2 0x1DD DUP2 PUSH2 0x1A4 JUMP JUMPDEST SWAP1 POP PUSH2 0x1EC PUSH1 0x20 DUP4 ADD DUP5 PUSH2 0x141 JUMP JUMPDEST SWAP3 SWAP2 POP POP JUMP INVALID LOG2 PUSH5 0x6970667358 0x22 SLT KECCAK256 DUP12 RETURNDATACOPY 0xBF SLOAD PUSH24 0xDE99BF8E11E0471EC9D8B04440602F994448BB9DB1D75B85 PUSH19 0xB3864736F6C634300081E0033000000000000 "
				},
				"gasEstimates": {
					"creation": {
						"codeDepositCost": "110400",
						"executionCost": "157",
						"totalCost": "110557"
					},
					"external": {
						"abc()": "infinite"
					}
				},
				"methodIdentifiers": {
					"abc()": "92277933"
				}
			},
			"storageLayout": {
				"storage": [],
				"types": null
			},
			"userdoc": {
				"kind": "user",
				"methods": {},
				"version": 1
			}
		}
	}
}